:020000002E2DA3
:10000800FF00030E8301CA000A08C9008A017008AC
:10001800AC007108AB007208AA007308A900740844
:10002800A8007508A7007808A6007908A5007A082E
:10003800A4007B08A3007C08A2007D08A1008B1CFB
:100048003328D101053051020318312886176C2452
:100058007F3086056C24D10A2628FD308B050B1DC0
:100068009928F8308100C20A0319C30AC40A03197F
:10007800C50A4508013A031D4328F4304406031D08
:100088009728C401C501902498247008BF007108FE
:10009800C00000307106031D53280030700601307F
:1000A800031D0030F2004808003A013003190030FF
:1000B800F0007208F00503196528C80105258801B4
:1000C800972800304006031D6B2801303F06013099
:1000D800031D0030F1004808013A013003190030CF
:1000E800F0007108F00503197E280130C800DD24EE
:1000F8008801972800304006031D842802303F06F7
:100108000130031D0030F1004808023A013003199C
:100118000030F0007108F005031997280230C80074
:10012800B22401308800FB308B052C08F0002B0826
:10013800F1002A08F2002908F3002808F40027082B
:10014800F5002608F8002508F9002408FA00230815
:10015800FB002208FC002108FD0049088A004A0E1D
:080168008300FF0E7F0E090069
:0E017000F201F101F001F801F3010030080086
:10017E007B15FB1FC9280130F300F201F101F001DC
:08018E00FA0DF20CFF3008002D
:08019600FA1FF213003008000B
:10019E00A0017208031DE4287108F2007008F10036
:1001AE00F001A0157208031DE4287108F200F10198
:1001BE00A011201672080319F2282008F302031D5D
:1001CE00031CF6280310F21BFA28F00DF10DF20DA8
:1001DE00F30BEA28F6280130FC00B820FD28023087
:0E01EE00FC00BF20FD280430FC00CB200800E0
:1001FC00FB14FB1F0829FF30F300F200F100F000A4
:08020C00FA0DF20CFF300800AE
:100214007B14FB1F1529F201FA1FFF30F200F100D5
:0A022400F000FA0DF20CFF300800A4
:06022E00FB15FF30080083
:10023400831203137008F8007108F000F101F20151
:10024400F301FB01FC019630F300FA017008F100A0
:0C0254007808F000F801F201CF2008004B
:1002600083120313C201C30150084302031D3A293C
:0C0270004F08420203183D293429080001
:10027C0083120313FB01FA01F9018030F800F10C31
:10028C00F00C031C52297408F90775080318750F34
:10029C00FA070318FB0A0310F01F5A297408FA070F
:1002AC0075080318750FFB07FB0CFA0CF90CF80C0E
:1002BC00031C45297B08F3007A08F2007908F10049
:0602CC007808F0000800B4
:1002D20083120313FB017308031D77080319C02956
:1002E20072087606FA007708F3077E30031C7D2930
:1002F200F3020318C3298029F302031CC6297208DA
:10030200F8007108FC007008FD00F817F6170310DA
:10031200F201F101F0011830A0007D1C9A29740845
:10032200F00775080318750FF10776080318760FA2
:10033200F207F20CF10CF00CF80CFC0CFD0C0310A3
:10034200A00B8E29F21BAA29F80DF00DF10DF20D6A
:10035200F3037B1B701CBC29F81FBC29F00A03198C
:10036200F10A0319F20A031DBC29F20CF10CF00C7C
:10037200F30A0319C329FA1FF2130030C829013006
:10038200B820C8290230FE20C8290430BF2000004E
:02039200080061
:10039400831203137408003A031DE5297508003A13
:1003A400031DE5297608003A031DE5297708003A7C
:1003B400031DE529FF30F000FF30F1007F30F2002B
:1003C400FF30F300802A8312031377080319742A79
:1003D40073080319772A720876068039FA00F2172F
:1003E400F617A0017208F8007108FC007008FD00FF
:1003F4007408FD027508031C750FFC027608031CC3
:10040400760FF802F801FC01FD01031C102A031009
:10041400F20CF10CF00CF80C0130A0007708F30298
:10042400031C1A2A7E302007F30703187A2A1F2A8E
:100434007E302007F307031C7D2A1830FA07FD0DD0
:10044400FC0DF80DF00DF10DF20DA00D7408F00285
:100454007508031C750FF1027608031C760FF2026F
:10046400760DA004201C382A7D14432A7408F00752
:1004740075080318750FF10776080318760AF20752
:100484007D10FA031F307A05031D212A7B1B7D1C76
:100494006A2A0310F00DF10DF20DA00D7408F0029C
:1004A4007508031C750FF1027608031C760FF2021F
:1004B400760D20040139FD070318FC0A0319F80A14
:1004C400031D6A2AF80CFC0CFD0CF30A03197A2AA2
:1004D400FA1FF8137808F2007C08F1007D08F00098
:1004E40000307F2A013017217F2A0230B8207F2A6A
:0E04F4000430FE207F2A0830BF2000000800E0
:1005020083120313FB01FC01FA0173080319C02AC9
:10051200F2178E30F302F31B912A0319912AC32A90
:10052200F309F30A08307302031CA62AF300F10D43
:100532007208F100F20108307302031CA62AF10DC1
:10054200F1017308031D0310AE2A73080319AE2AC2
:100552000310F20CF10CF30BA92A7B1B711CB82AB5
:10056200031CB82AF10A0319F20AF21BCF2AFA1F56
:10057200D22AF209F109F10A0319F20AD22AF20186
:10058200F101D22A7B14FB1FD52AF201FA1FD52AC8
:10059200FF30F200F100FA0DF20CD52A0130FC0016
:1005A200D72A0030FC00D72AFF30FC00FC080319D0
:0E05B200DB2A0A217108F0007208F10008002F
:1005C00083120313FA017308031D7A147708031DBD
:1005D000FA147A0803192C2B033A0319F72A7A180C
:1005E000F42AF61F2A2B282BF21F282B2A2B7208FD
:1005F0008039FA00F21376088039F6137A06031967
:10060000052B7A080319282B2A2B77087302031964
:100610000C2B031C202B242B760872020319132B9E
:10062000031C202B242B7508710203191A2B031CA1
:10063000202B242B7408700203192C2B0318242B55
:10064000FA0803192A2B282BFA080319282B2A2B1E
:100650000314080003100800031403150800080021
:0E0660008312031336088A0035088200080052
:10066E00831203131F151F1D3D2B3A2B1E08F1007D
:10067E00F00183161E08F0040030F1041A21080060
:10068E0083120313F801F9011030FC00710DF80DFF
:10069E00F90D7408F8027508031C750FF90203189A
:1006AE005F2B7408F80775080318750FF907031008
:0A06BE00F00DF10DFC0B4D2B0800B0
:1006C8005930831203139F00C03083169F0008001F
:1006D800831203131F151F1D722B6F2B1E08F100A9
:0E06E800F00183161E08F0040030F104080033
:1006F600642337237008B1007108B2007208B30092
:100706007308B4000030F4000030F5007A30F600CB
:100716008730F70069210030F400C030F5007F30E3
:10072600F6008830F700CA217008CB007108CC00AB
:100736007208CD007308CE004B08AD004C08AE0021
:100746004D08AF004E08B0004B08F0004C08F10011
:100756004D08F2004E08F30081227008B7007108B8
:10076600B8004B08F4004C08F5004D08F6004E089A
:10077600F7000030F0000030F1002030F200843045
:10078600F300E022013003180030F000700803196E
:10079600D32B6330B9000030BA00FF308700412CFC
:1007A6000030F4000030F5002030F6008430F70009
:1007B6002D08F0002E08F1002F08F2003008F30093
:1007C600E022013003180030CB002D08F4002E087B
:1007D600F5002F08F6003008F7000030F000003072
:1007E600F1007030F2008330F300E022013003188C
:1007F6000030F0004B08F0050319082C1E30B90034
:100806000030BA000F308700412C0030F400003071
:10081600F5007030F6008330F7002D08F0002E0842
:10082600F1002F08F2003008F300E022013003182F
:100836000030CB002D08F4002E08F5002F08F60036
:100846003008F7000030F0000030F1004830F200C8
:100856008330F300E022013003180030F0004B082B
:10086600F00503193D2C1230B9000030BA000430EF
:0E0876008700412CB901BA010130870008004B
:10088400831203134B08C6004C08C7004D08F00040
:100894004E08F1004B08F4004C08F5003E2164308A
:1008A400F4000030F50047237008BD007108BE0055
:1008B40006167008CF007108D0003021EF3086058D
:1008C4003D084602CF003E08031C013E4702D0000B
:0408D40030210800C7
:1008D80083120313F301283073020318832CF101E8
:1008E800F20107307202031D7B2CD030710203180D
:1008F800812CF10A0319F20A752CF30A6F2C0800EF
:1009080030238A110A128000840AB50A0319B60A2C
:08091800F003031D842C08000C
:100920004930831203139F00C03083169F000800D4
:100930006C2370088312BB007108BC000530F40002
:100940000030F5003E21FF30F4000330F50047236E
:100950007008C1007008BF00C0013F08F0004008E7
:04096000F10008009A
:1009640083120313F101F20100307202031DBC2C47
:10097400323071020318DA2C86160430FC00E4309D
:10098400FD00FD0BC32CFC0BC32C0000DF308605DF
:100994003130FC000B30FD00FD0BCE2CFC0BCE2CBB
:1009A400000000007F308605F10A0319F20AB62C14
:0609B4007F3086050800FB
:1009BA0083120313F101F20100307202031DE72CC6
:1009CA00323071020318022D86160330FC00FB3008
:1009DA00FD00FD0BEE2CFC0BEE2C00000000DF30BE
:1009EA0086053130FC00F530FD00FD0BFA2CFC0BBE
:1009FA00FA2CF10A0319F20AE12C7F308605080065
:100A0A0083120313F101F20100307202031D0F2D4C
:100A1A003230710203182B2D86160330FC00123077
:100A2A00FD00FD0B162DFC0B162D0000DF30860590
:100A3A003230FC00DD30FD00FD0B212DFC0B212D99
:100A4A0000000000F10A0319F20A092D7F30860519
:020A5A00080092
:100A5C0083120313AD01AE01AF01B001FF30831659
:100A6C008500013086008030870088018312860162
:100A7C0088018701C401C501C201C301F83081009E
:100A8C00873083168100B0308B008312B901BA0114
:100A9C00C8017B230A30CB000030CC003908CD00D4
:0A0AAC003A08CE0042244F2D5A2DC7
:02400E004A2F37
:00000001FF
